:100000000C945E000C9486000C9486000C94860080
:100010000C9486000C9486000C9486000C94860048
:100020000C9486000C9486000C9486000C94860038
:100030000C9486000C9486000C9486000C94860028
:100040000C9467020C9486000C9486000C94860035
:100050000C9486000C9486000C9486000C94860008
:100060000C9486000C9486000000000024002700F9
:100070002A0000000000250028002B0004040404CE
:100080000404040402020202020203030303030342
:10009000010204081020408001020408102001021F
:1000A00004081020000000080002010000030407FB
:1000B00000000000000000004503AB0311241FBE38
:1000C000CFEFD8E0DEBFCDBF11E0A0E0B1E0E4EFBC
:1000D000FBE002C005900D92AA30B107D9F721E0EC
:1000E000AAE0B1E001C01D92A333B207E1F710E02E
:1000F000CDE5D0E004C02197FE010E94C204CC35BA
:10010000D107C9F70E94B1020C94ED050C940000D0
:1001100090E0FC01EC55FF4F2491FC01E057FF4FAC
:100120003491FC01E458FF4FE491EE23B9F022230F
:1001300039F02330F1F098F4213009F1223019F12F
:10014000F0E0EE0FFF1FEE58FF4FA591B4918FB76F
:10015000F894EC9130953E233C938FBF089527305F
:10016000A9F02830C9F0243059F7809180008F7DA4
:1001700003C0809180008F7780938000E1CF84B5A9
:100180008F7784BDDDCF84B58F7DFBCF8091B000AC
:100190008F778093B000D4CF8091B0008F7DF9CF5E
:1001A000CF93DF9390E0FC01E057FF4F24918458F8
:1001B0009F4FFC0184918823D1F090E0880F991F14
:1001C000FC01E859FF4FA591B491FC01EE58FF4F97
:1001D000C591D49161110EC09FB7F8948C91E22F14
:1001E000E0958E238C932881E223E8839FBFDF91E3
:1001F000CF9108958FB7F894EC91E22BEC938FBFD9
:10020000F6CF3FB7F89480910F0190911001A09123
:100210001101B091120126B5A89B05C02F3F19F01E
:100220000196A11DB11D3FBFBA2FA92F982F882776
:10023000BC01CD01620F711D811D911D42E0660F51
:10024000771F881F991F4A95D1F708958F929F9223
:10025000AF92BF92CF92DF92EF92FF920F931F93D4
:10026000CF93DF93CDB7DEB729970FB6F894DEBFF3
:100270000FBECDBF362FE42F4091150150911601CE
:100280008417950708F049C0422F50E070E060E005
:100290005E2B632B4B01AA24BB24C52ED62EE72E42
:1002A000FF240C2D122F20911B01E82D222391F009
:1002B000A22FB0E0A89DF001A99DF00DB89DF00D12
:1002C0001124EF2F2C9D600111240D2D249FA001DE
:1002D0001124152FA091210120911C0130911D01A5
:1002E00040911E01A413AFC0AC01440F551F840FF1
:1002F000951F820F931FA0911E01A80FB92FB11D4A
:10030000EC93E0911F01E80FF92FF11D008320917C
:100310002001820F911DFC01108380911C0190919E
:100320001D01892B09F47CC00E940101009122016A
:10033000109123012091240130912501601771074C
:100340008207930740F46093220170932301809306
:100350002401909325010091220110912301209105
:10036000240130912501601B710B820B930B6C32C1
:10037000714081059105C0F2F89480911701909128
:1003800018019A838983E0911C01F0911D01DF011E
:1003900011968081898790911301E0912601F09157
:1003A000270180912801992309F458C09081982B46
:1003B00098879081809589238F838F818C8388E0B3
:1003C0008B8358856F8149853B812C8189819A81F6
:1003D000508347FD252F3A952083262F39F0441F5F
:1003E00000C000006083000000C0F2CF38E04D91F3
:1003F00060830000019761F7F0932701E0932601E5
:1004000049873B832C839A83898378940E940101D6
:10041000609322017093230180932401909325011E
:1004200029960FB6F894DEBF0FBECDBFDF91CF91F6
:100430001F910F91FF90EF90DF90CF90BF90AF9002
:100440009F908F900895880F991F880F991F820F92
:10045000931FA80FB92FB11D1C924DCF9081982BDF
:1004600098879081809589238F838F818E8388E000
:100470008D8358856F8149853D812E8189819A813F
:10048000508347FD252F00C000C0208300C000C05E
:1004900000C000C000C060830000262F3A9541F0E4
:1004A000441F000000C000C000C000C000C0E8CF72
:1004B00038E04D9100C0608300C0019709F7F093C8
:1004C0002701E093260149873D832E839CCF1F920D
:1004D0000F920FB60F9211242F933F938F939F93F8
:1004E000AF93BF9380910B0190910C01A0910D01EE
:1004F000B0910E0130910A0123E0230F2D3758F5FA
:100500000196A11DB11D20930A0180930B019093C8
:100510000C01A0930D01B0930E0180910F019091F9
:100520001001A0911101B09112010196A11DB11D00
:1005300080930F0190931001A0931101B0931201C9
:10054000BF91AF919F918F913F912F910F900FBECF
:100550000F901F90189526E8230F0296A11DB11D3C
:10056000D2CF789484B5826084BD84B5816084BD27
:1005700085B5826085BD85B5816085BD80916E0041
:10058000816080936E001092810080918100826072
:1005900080938100809181008160809381008091AF
:1005A00080008160809380008091B100846080939E
:1005B000B1008091B00081608093B00080917A009A
:1005C000846080937A0080917A00826080937A00C0
:1005D00080917A00816080937A0080917A008068AF
:1005E00080937A001092C1008091190190911A01B4
:1005F00097FD07C061E00E94D000809119010E9420
:10060000880081E0809314010E940704C12CD12C42
:100610007601CA94A70196010E945F0470932A0193
:10062000609329010E940704A70196010E945F04BC
:1006300070932C0160932B010E940704A70196017F
:100640000E945F047B0170932E0160932D01D0E026
:10065000C0E0209779F430E020E050E040E06FEF18
:1006600070E090E080E00E9426012196C431D1051F
:1006700081F7EDCF40912B0150912C016091290120
:1006800070912A019701CE01EECFCF93DF931092A4
:10069000140110921B01109222011092230110925A
:1006A00024011092250181E08093210180931E0195
:1006B00010921F0192E09093200180931301C4E8EF
:1006C000D3E0D0931801C093170184E893E00E940F
:1006D000C80490931D0180931C01009799F1FC01BF
:1006E0009E01119221503040E1F78CE291E090930D
:1006F00016018093150182E090E090931A01809397
:10070000190180911401882339F061E082E00E9490
:10071000D00082E00E948800EEE7F0E0E491F0E093
:10072000EE0FFF1FEE58FF4F859194919093270194
:1007300080932601E2E9F0E0E491E0932801DF9163
:10074000CF9108951092180110921701109216017E
:1007500010921501D0CF80911C0190911D010E9433
:1007600064058091190190911A0197FD03C060E022
:100770000C94D00008958F929F92AF92BF92CF9227
:10078000DF92EF92FF92CF93DF93EC016881798142
:100790008A819B81611571058105910521F464E2CF
:1007A00079ED8BE597E02DE133EF41E050E00E94D9
:1007B0005F0449015A019B01AC01A7EAB1E40E9420
:1007C0007E046B017C01ACEEB4EFA50194010E94A4
:1007D0008C04C60ED71EE81EF91EF7FE06C081E087
:1007E000C81AD108E10880E8F80AC882D982EA82EA
:1007F000FB82C701B6019F77DF91CF91FF90EF9009
:10080000DF90CF90BF90AF909F908F9008958F9280
:100810009F92AF92BF92CF92DF92EF92FF92609140
:100820000001709101018091020190910301611515
:1008300071058105910521F464E279ED8BE597E07E
:100840002DE133EF41E050E00E945F0449015A017D
:100850009B01AC01A7EAB1E40E947E046B017C011C
:10086000ACEEB4EFA50194010E948C04C60ED71E15
:10087000E81EF91EF7FE06C081E0C81AD108E1089B
:1008800080E8F80AC0920001D0920101E0920201D2
:10089000F0920301C701B6019F77FF90EF90DF90C0
:1008A000CF90BF90AF909F908F900895609300017C
:1008B0007093010180930201909303010895052E26
:1008C00097FB1EF400940E94760457FD07D00E9407
:1008D000910407FC03D04EF40C9476045095409597
:1008E000309521953F4F4F4F5F4F089590958095DC
:1008F000709561957F4F8F4F9F4F08950E94B3046D
:10090000A59F900DB49F900DA49F800D911D112463
:100910000895B7FF0C947E040E947E04821B930B03
:100920000895A1E21A2EAA1BBB1BFD010DC0AA1F30
:10093000BB1FEE1FFF1FA217B307E407F50720F048
:10094000A21BB30BE40BF50B661F771F881F991FC3
:100950001A9469F760957095809590959B01AC010C
:10096000BD01CF010895A29FB001B39FC001A39F15
:10097000700D811D1124911DB29F700D811D1124D8
:10098000911D0895EE0FFF1F0590F491E02D09943D
:100990000F931F93CF93DF938230910510F482E081
:1009A00090E0E0913101F091320130E020E0B0E0E0
:1009B000A0E0309799F42115310509F44AC0281BAD
:1009C000390B24303105D8F58A819B816115710579
:1009D00089F1FB0193838283FE0111C04081518123
:1009E0000281138148175907E0F04817590799F415
:1009F000109761F012960C93129713961C933296EF
:100A0000CF01DF91CF911F910F9108950093310194
:100A100010933201F4CF2115310551F042175307DD
:100A200038F0A901DB019A01BD01DF01F801C1CF56
:100A3000EF01F9CF9093320180933101CDCFFE01C8
:100A4000E20FF31F81939193225031093983288358
:100A5000D7CF20912F0130913001232B41F42091E9
:100A60000601309107013093300120932F0120912E
:100A70000401309105012115310541F42DB73EB730
:100A80004091080150910901241B350BE0912F0181
:100A9000F0913001E217F307A0F42E1B3F0B28174B
:100AA000390778F0AC014E5F5F4F2417350748F0E7
:100AB0004E0F5F1F5093300140932F01819391930C
:100AC0009FCFF0E0E0E09CCFCF93DF930097E9F079
:100AD000FC01329713821282A0913101B091320150
:100AE000ED0130E020E01097A1F420813181820FE8
:100AF000931F20912F01309130012817390709F0F9
:100B000061C0F0933001E0932F01DF91CF91089500
:100B1000EA01CE17DF07E8F54A815B819E014115A6
:100B20005105B1F7E901FB83EA8349915991C40F5B
:100B3000D51FEC17FD0761F4808191810296840F27
:100B4000951FE90199838883828193819B838A839E
:100B5000F0E0E0E012968D919C9113970097B9F523
:100B60002D913C911197CD010296820F931F2091F8
:100B70002F01309130012817390739F6309751F598
:100B80001092320110923101B0933001A0932F01E5
:100B9000BCCFD383C28340815181840F951FC81776
:100BA000D90761F44E5F5F4F88819981480F591FC3
:100BB000518340838A819B819383828321153105F0
:100BC00009F0B0CFF0933201E09331019ECFFD01E7
:100BD000DC01C0CF13821282D7CF10E0CDE5D0E088
:100BE00004C0FE010E94C2042196CE35D107C9F788
:040BF000F894FFCFA7
:0A0BF4000100000000003301800042
:00000001FF
